{
  "contractName": "Certificate",
  "abi": [
    {
      "inputs": [],
      "stateMutability": "nonpayable",
      "type": "constructor"
    },
    {
      "anonymous": false,
      "inputs": [
        {
          "indexed": false,
          "internalType": "uint256",
          "name": "certId",
          "type": "uint256"
        },
        {
          "indexed": false,
          "internalType": "string",
          "name": "studentName",
          "type": "string"
        },
        {
          "indexed": false,
          "internalType": "string",
          "name": "course",
          "type": "string"
        },
        {
          "indexed": false,
          "internalType": "string",
          "name": "ipfsHash",
          "type": "string"
        },
        {
          "indexed": false,
          "internalType": "address",
          "name": "issuer",
          "type": "address"
        }
      ],
      "name": "CertificateIssued",
      "type": "event"
    },
    {
      "inputs": [],
      "name": "certificateCount",
      "outputs": [
        {
          "internalType": "uint256",
          "name": "",
          "type": "uint256"
        }
      ],
      "stateMutability": "view",
      "type": "function"
    },
    {
      "inputs": [
        {
          "internalType": "uint256",
          "name": "",
          "type": "uint256"
        }
      ],
      "name": "certificates",
      "outputs": [
        {
          "internalType": "string",
          "name": "studentName",
          "type": "string"
        },
        {
          "internalType": "string",
          "name": "course",
          "type": "string"
        },
        {
          "internalType": "uint256",
          "name": "issueDate",
          "type": "uint256"
        },
        {
          "internalType": "string",
          "name": "ipfsHash",
          "type": "string"
        },
        {
          "internalType": "address",
          "name": "issuer",
          "type": "address"
        }
      ],
      "stateMutability": "view",
      "type": "function"
    },
    {
      "inputs": [
        {
          "internalType": "string",
          "name": "_studentName",
          "type": "string"
        },
        {
          "internalType": "string",
          "name": "_course",
          "type": "string"
        },
        {
          "internalType": "string",
          "name": "_ipfsHash",
          "type": "string"
        }
      ],
      "name": "issueCertificate",
      "outputs": [],
      "stateMutability": "nonpayable",
      "type": "function"
    },
    {
      "inputs": [
        {
          "internalType": "uint256",
          "name": "_certId",
          "type": "uint256"
        }
      ],
      "name": "verifyCertificate",
      "outputs": [
        {
          "internalType": "string",
          "name": "studentName",
          "type": "string"
        },
        {
          "internalType": "string",
          "name": "course",
          "type": "string"
        },
        {
          "internalType": "uint256",
          "name": "issueDate",
          "type": "uint256"
        },
        {
          "internalType": "string",
          "name": "ipfsHash",
          "type": "string"
        },
        {
          "internalType": "address",
          "name": "issuer",
          "type": "address"
        }
      ],
      "stateMutability": "view",
      "type": "function"
    }
  ],
  "bytecode": "0x608060405234801561000f575f80fd5b505f600181905550610e9d806100245f395ff3fe608060405234801561000f575f80fd5b506004361061004a575f3560e01c80631692a9421461004e57806352d7b89c14610082578063663b3e22146100a0578063beec1caa146100d4575b5f80fd5b6100686004803603810190610063919061070a565b6100f0565b60405161007995949392919061080d565b60405180910390f35b61008a61039f565b6040516100979190610873565b60405180910390f35b6100ba60048036038101906100b5919061070a565b6103a5565b6040516100cb95949392919061080d565b60405180910390f35b6100ee60048036038101906100e991906109b8565b610587565b005b6060805f60605f808611801561010857506001548611155b610147576040517f08c379a000000000000000000000000000000000000000000000000000000000815260040161013e90610aa6565b60405180910390fd5b5f805f8881526020019081526020015f206040518060a00160405290815f8201805461017290610af1565b80601f016020809104026020016040519081016040528092919081815260200182805461019e90610af1565b80156101e95780601f106101c0576101008083540402835291602001916101e9565b820191905f5260205f20905b8154815290600101906020018083116101cc57829003601f168201915b5050505050815260200160018201805461020290610af1565b80601f016020809104026020016040519081016040528092919081815260200182805461022e90610af1565b80156102795780601f1061025057610100808354040283529160200191610279565b820191905f5260205f20905b81548152906001019060200180831161025c57829003601f168201915b505050505081526020016002820154815260200160038201805461029c90610af1565b80601f01602080910402602001604051908101604052809291908181526020018280546102c890610af1565b80156103135780601f106102ea57610100808354040283529160200191610313565b820191905f5260205f20905b8154815290600101906020018083116102f657829003601f168201915b50505050508152602001600482015f9054906101000a900473ffffffffffffffffffffffffffffffffffffffff1673ffffffffffffffffffffffffffffffffffffffff1673ffffffffffffffffffffffffffffffffffffffff16815250509050805f01518160200151826040015183606001518460800151955095509550955095505091939590929450565b60015481565b5f602052805f5260405f205f91509050805f0180546103c390610af1565b80601f01602080910402602001604051908101604052809291908181526020018280546103ef90610af1565b801561043a5780601f106104115761010080835404028352916020019161043a565b820191905f5260205f20905b81548152906001019060200180831161041d57829003601f168201915b50505050509080600101805461044f90610af1565b80601f016020809104026020016040519081016040528092919081815260200182805461047b90610af1565b80156104c65780601f1061049d576101008083540402835291602001916104c6565b820191905f5260205f20905b8154815290600101906020018083116104a957829003601f168201915b5050505050908060020154908060030180546104e190610af1565b80601f016020809104026020016040519081016040528092919081815260200182805461050d90610af1565b80156105585780601f1061052f57610100808354040283529160200191610558565b820191905f5260205f20905b81548152906001019060200180831161053b57829003601f168201915b505050505090806004015f9054906101000a900473ffffffffffffffffffffffffffffffffffffffff16905085565b60015f81548092919061059990610b4e565b91905055506040518060a001604052808481526020018381526020014281526020018281526020013373ffffffffffffffffffffffffffffffffffffffff168152505f8060015481526020019081526020015f205f820151815f0190816106009190610d32565b5060208201518160010190816106169190610d32565b506040820151816002015560608201518160030190816106369190610d32565b506080820151816004015f6101000a81548173ffffffffffffffffffffffffffffffffffffffff021916908373ffffffffffffffffffffffffffffffffffffffff1602179055509050507f1de74ad78994adcce83ed5cecc8c14ced778f7b14e511a8bf916072c8bd3221b600154848484336040516106b9959493929190610e01565b60405180910390a1505050565b5f604051905090565b5f80fd5b5f80fd5b5f819050919050565b6106e9816106d7565b81146106f3575f80fd5b50565b5f81359050610704816106e0565b92915050565b5f6020828403121561071f5761071e6106cf565b5b5f61072c848285016106f6565b91505092915050565b5f81519050919050565b5f82825260208201905092915050565b5f5b8381101561076c578082015181840152602081019050610751565b5f8484015250505050565b5f601f19601f8301169050919050565b5f61079182610735565b61079b818561073f565b93506107ab81856020860161074f565b6107b481610777565b840191505092915050565b6107c8816106d7565b82525050565b5f73ffffffffffffffffffffffffffffffffffffffff82169050919050565b5f6107f7826107ce565b9050919050565b610807816107ed565b82525050565b5f60a0820190508181035f8301526108258188610787565b905081810360208301526108398187610787565b905061084860408301866107bf565b818103606083015261085a8185610787565b905061086960808301846107fe565b9695505050505050565b5f6020820190506108865f8301846107bf565b92915050565b5f80fd5b5f80fd5b7f4e487b71000000000000000000000000000000000000000000000000000000005f52604160045260245ffd5b6108ca82610777565b810181811067ffffffffffffffff821117156108e9576108e8610894565b5b80604052505050565b5f6108fb6106c6565b905061090782826108c1565b919050565b5f67ffffffffffffffff82111561092657610925610894565b5b61092f82610777565b9050602081019050919050565b828183375f83830152505050565b5f61095c6109578461090c565b6108f2565b90508281526020810184848401111561097857610977610890565b5b61098384828561093c565b509392505050565b5f82601f83011261099f5761099e61088c565b5b81356109af84826020860161094a565b91505092915050565b5f805f606084860312156109cf576109ce6106cf565b5b5f84013567ffffffffffffffff8111156109ec576109eb6106d3565b5b6109f88682870161098b565b935050602084013567ffffffffffffffff811115610a1957610a186106d3565b5b610a258682870161098b565b925050604084013567ffffffffffffffff811115610a4657610a456106d3565b5b610a528682870161098b565b9150509250925092565b7f436572746966696361746520646f6573206e6f742065786973740000000000005f82015250565b5f610a90601a8361073f565b9150610a9b82610a5c565b602082019050919050565b5f6020820190508181035f830152610abd81610a84565b9050919050565b7f4e487b71000000000000000000000000000000000000000000000000000000005f52602260045260245ffd5b5f6002820490506001821680610b0857607f821691505b602082108103610b1b57610b1a610ac4565b5b50919050565b7f4e487b71000000000000000000000000000000000000000000000000000000005f52601160045260245ffd5b5f610b58826106d7565b91507fffffffffffffffffffffffffffffffffffffffffffffffffffffffffffffffff8203610b8a57610b89610b21565b5b600182019050919050565b5f819050815f5260205f209050919050565b5f6020601f8301049050919050565b5f82821b905092915050565b5f60088302610bf17fffffffffffffffffffffffffffffffffffffffffffffffffffffffffffffffff82610bb6565b610bfb8683610bb6565b95508019841693508086168417925050509392505050565b5f819050919050565b5f610c36610c31610c2c846106d7565b610c13565b6106d7565b9050919050565b5f819050919050565b610c4f83610c1c565b610c63610c5b82610c3d565b848454610bc2565b825550505050565b5f90565b610c77610c6b565b610c82818484610c46565b505050565b5b81811015610ca557610c9a5f82610c6f565b600181019050610c88565b5050565b601f821115610cea57610cbb81610b95565b610cc484610ba7565b81016020851015610cd3578190505b610ce7610cdf85610ba7565b830182610c87565b50505b505050565b5f82821c905092915050565b5f610d0a5f1984600802610cef565b1980831691505092915050565b5f610d228383610cfb565b9150826002028217905092915050565b610d3b82610735565b67ffffffffffffffff811115610d5457610d53610894565b5b610d5e8254610af1565b610d69828285610ca9565b5f60209050601f831160018114610d9a575f8415610d88578287015190505b610d928582610d17565b865550610df9565b601f198416610da886610b95565b5f5b82811015610dcf57848901518255600182019150602085019450602081019050610daa565b86831015610dec5784890151610de8601f891682610cfb565b8355505b6001600288020188555050505b505050505050565b5f60a082019050610e145f8301886107bf565b8181036020830152610e268187610787565b90508181036040830152610e3a8186610787565b90508181036060830152610e4e8185610787565b9050610e5d60808301846107fe565b969550505050505056fea2646970667358221220559dbb0e7ee5720e2dbec72dde32c02c0932a06fed78983784b40cc5add8cec264736f6c63430008150033",
  "immutableReferences": {},
  "source": "// SPDX-License-Identifier: MIT\r\npragma solidity ^0.8.21;\r\n\r\ncontract Certificate {\r\n    struct CertificateData {\r\n        string studentName;\r\n        string course;\r\n        uint256 issueDate;\r\n        string ipfsHash;\r\n        address issuer;\r\n    }\r\n\r\n    mapping(uint256 => CertificateData) public certificates;\r\n    uint256 public certificateCount;\r\n\r\n    event CertificateIssued(uint256 certId, string studentName, string course, string ipfsHash, address issuer);\r\n\r\n    constructor() {\r\n        certificateCount = 0; // Ensure it starts at zero\r\n    }\r\n\r\n    function issueCertificate(string memory _studentName, string memory _course, string memory _ipfsHash) public {\r\n        certificateCount++;\r\n        certificates[certificateCount] = CertificateData(_studentName, _course, block.timestamp, _ipfsHash, msg.sender);\r\n        emit CertificateIssued(certificateCount, _studentName, _course, _ipfsHash, msg.sender);\r\n    }\r\n\r\n    function verifyCertificate(uint256 _certId) public view returns (\r\n        string memory studentName, \r\n        string memory course, \r\n        uint256 issueDate, \r\n        string memory ipfsHash, \r\n        address issuer\r\n    ) {\r\n        require(_certId > 0 && _certId <= certificateCount, \"Certificate does not exist\");\r\n        CertificateData memory cert = certificates[_certId];\r\n        return (cert.studentName, cert.course, cert.issueDate, cert.ipfsHash, cert.issuer);\r\n    }\r\n}\r\n",
  "sourcePath": "F:\\ganache\\contracts\\Certificate.sol",
  "compiler": {
    "name": "solc",
    "version": "0.8.21+commit.d9974bed.Emscripten.clang"
  },
  "schemaVersion": "3.4.16",
  "updatedAt": "2025-04-01T14:50:17.661Z",
  "devdoc": {
    "kind": "dev",
    "methods": {},
    "version": 1
  },
  "userdoc": {
    "kind": "user",
    "methods": {},
    "version": 1
  }
}